{
  "address": "0xCf7Ed3AccA5a467e9e704C703E8D87F634fB0Fc9",
  "abi": [
    {
      "inputs": [
        {
          "internalType": "address",
          "name": "_vrfCoordinatorV2",
          "type": "address"
        },
        {
          "internalType": "uint256",
          "name": "_entranceFee",
          "type": "uint256"
        },
        {
          "internalType": "bytes32",
          "name": "_gasLane",
          "type": "bytes32"
        },
        {
          "internalType": "uint64",
          "name": "_subscriptionId",
          "type": "uint64"
        },
        {
          "internalType": "uint32",
          "name": "_callbackGasLimit",
          "type": "uint32"
        },
        {
          "internalType": "uint256",
          "name": "_interval",
          "type": "uint256"
        }
      ],
      "stateMutability": "nonpayable",
      "type": "constructor"
    },
    {
      "inputs": [],
      "name": "Lottery__NotEnoughETHEntered",
      "type": "error"
    },
    {
      "inputs": [],
      "name": "Lottery__NotOpen",
      "type": "error"
    },
    {
      "inputs": [],
      "name": "Lottery__TransferFailed",
      "type": "error"
    },
    {
      "inputs": [
        {
          "internalType": "uint256",
          "name": "currentBalance",
          "type": "uint256"
        },
        {
          "internalType": "uint256",
          "name": "nunPlayers",
          "type": "uint256"
        },
        {
          "internalType": "uint256",
          "name": "lotteryState",
          "type": "uint256"
        }
      ],
      "name": "Lottery__UpkeepNotNeeded",
      "type": "error"
    },
    {
      "inputs": [
        {
          "internalType": "address",
          "name": "have",
          "type": "address"
        },
        {
          "internalType": "address",
          "name": "want",
          "type": "address"
        }
      ],
      "name": "OnlyCoordinatorCanFulfill",
      "type": "error"
    },
    {
      "anonymous": false,
      "inputs": [
        {
          "indexed": true,
          "internalType": "address",
          "name": "player",
          "type": "address"
        }
      ],
      "name": "LotteryEnter",
      "type": "event"
    },
    {
      "anonymous": false,
      "inputs": [
        {
          "indexed": true,
          "internalType": "uint256",
          "name": "requestId",
          "type": "uint256"
        }
      ],
      "name": "RequestedLotteryWinner",
      "type": "event"
    },
    {
      "anonymous": false,
      "inputs": [
        {
          "indexed": true,
          "internalType": "address",
          "name": "winner",
          "type": "address"
        }
      ],
      "name": "WinnerPicked",
      "type": "event"
    },
    {
      "inputs": [
        {
          "internalType": "bytes",
          "name": "",
          "type": "bytes"
        }
      ],
      "name": "checkUpkeep",
      "outputs": [
        {
          "internalType": "bool",
          "name": "upkeepNeeded",
          "type": "bool"
        },
        {
          "internalType": "bytes",
          "name": "",
          "type": "bytes"
        }
      ],
      "stateMutability": "view",
      "type": "function"
    },
    {
      "inputs": [],
      "name": "enterLottery",
      "outputs": [],
      "stateMutability": "payable",
      "type": "function"
    },
    {
      "inputs": [],
      "name": "getEntranceFee",
      "outputs": [
        {
          "internalType": "uint256",
          "name": "",
          "type": "uint256"
        }
      ],
      "stateMutability": "view",
      "type": "function"
    },
    {
      "inputs": [],
      "name": "getInterval",
      "outputs": [
        {
          "internalType": "uint256",
          "name": "",
          "type": "uint256"
        }
      ],
      "stateMutability": "view",
      "type": "function"
    },
    {
      "inputs": [],
      "name": "getLatestTimeStamp",
      "outputs": [
        {
          "internalType": "uint256",
          "name": "",
          "type": "uint256"
        }
      ],
      "stateMutability": "view",
      "type": "function"
    },
    {
      "inputs": [],
      "name": "getLotteryState",
      "outputs": [
        {
          "internalType": "enum Lottery.LotteryState",
          "name": "",
          "type": "uint8"
        }
      ],
      "stateMutability": "view",
      "type": "function"
    },
    {
      "inputs": [],
      "name": "getNumWords",
      "outputs": [
        {
          "internalType": "uint256",
          "name": "",
          "type": "uint256"
        }
      ],
      "stateMutability": "pure",
      "type": "function"
    },
    {
      "inputs": [],
      "name": "getNumberOfPlayers",
      "outputs": [
        {
          "internalType": "uint256",
          "name": "",
          "type": "uint256"
        }
      ],
      "stateMutability": "view",
      "type": "function"
    },
    {
      "inputs": [
        {
          "internalType": "uint256",
          "name": "_index",
          "type": "uint256"
        }
      ],
      "name": "getPlayer",
      "outputs": [
        {
          "internalType": "address",
          "name": "",
          "type": "address"
        }
      ],
      "stateMutability": "view",
      "type": "function"
    },
    {
      "inputs": [],
      "name": "getRecentWinner",
      "outputs": [
        {
          "internalType": "address",
          "name": "",
          "type": "address"
        }
      ],
      "stateMutability": "view",
      "type": "function"
    },
    {
      "inputs": [],
      "name": "getRequestConfirmations",
      "outputs": [
        {
          "internalType": "uint256",
          "name": "",
          "type": "uint256"
        }
      ],
      "stateMutability": "pure",
      "type": "function"
    },
    {
      "inputs": [
        {
          "internalType": "bytes",
          "name": "",
          "type": "bytes"
        }
      ],
      "name": "performUpkeep",
      "outputs": [],
      "stateMutability": "nonpayable",
      "type": "function"
    },
    {
      "inputs": [
        {
          "internalType": "uint256",
          "name": "requestId",
          "type": "uint256"
        },
        {
          "internalType": "uint256[]",
          "name": "randomWords",
          "type": "uint256[]"
        }
      ],
      "name": "rawFulfillRandomWords",
      "outputs": [],
      "stateMutability": "nonpayable",
      "type": "function"
    },
    {
      "inputs": [],
      "name": "s_recentWinner",
      "outputs": [
        {
          "internalType": "address payable",
          "name": "",
          "type": "address"
        }
      ],
      "stateMutability": "view",
      "type": "function"
    }
  ],
  "transactionHash": "0xf9f97ebc16d98a936b1f1d244c8b3fce41d4ce7299baa0b3e05469ee31ad5734",
  "args": [
    "0x5FbDB2315678afecb367f032d93F642f64180aa3",
    "10000000000000000",
    "0x79d3d8832d904592c0bf9818b621522c988bb8b0c05cdc3b15aea1b6e8db0c15",
    "1",
    "500000",
    "30"
  ],
  "numDeployments": 1,
  "solcInputHash": "b577ea9429411b5282fb5a89b820c1da",
  "bytecode": "0x6101606040523480156200001257600080fd5b50604051620018aa380380620018aa833981810160405281019062000038919062000294565b858073ffffffffffffffffffffffffffffffffffffffff1660808173ffffffffffffffffffffffffffffffffffffffff1681525050508573ffffffffffffffffffffffffffffffffffffffff1660c08173ffffffffffffffffffffffffffffffffffffffff16815250508460a081815250508360e081815250508267ffffffffffffffff166101008167ffffffffffffffff16815250508163ffffffff166101208163ffffffff16815250506000600160146101000a81548160ff021916908360018111156200010d576200010c62000330565b5b0217905550426002819055508061014081815250505050505050506200035f565b600080fd5b600073ffffffffffffffffffffffffffffffffffffffff82169050919050565b6000620001608262000133565b9050919050565b620001728162000153565b81146200017e57600080fd5b50565b600081519050620001928162000167565b92915050565b6000819050919050565b620001ad8162000198565b8114620001b957600080fd5b50565b600081519050620001cd81620001a2565b92915050565b6000819050919050565b620001e881620001d3565b8114620001f457600080fd5b50565b6000815190506200020881620001dd565b92915050565b600067ffffffffffffffff82169050919050565b6200022d816200020e565b81146200023957600080fd5b50565b6000815190506200024d8162000222565b92915050565b600063ffffffff82169050919050565b6200026e8162000253565b81146200027a57600080fd5b50565b6000815190506200028e8162000263565b92915050565b60008060008060008060c08789031215620002b457620002b36200012e565b5b6000620002c489828a0162000181565b9650506020620002d789828a01620001bc565b9550506040620002ea89828a01620001f7565b9450506060620002fd89828a016200023c565b93505060806200031089828a016200027d565b92505060a06200032389828a01620001bc565b9150509295509295509295565b7f4e487b7100000000000000000000000000000000000000000000000000000000600052602160045260246000fd5b60805160a05160c05160e0516101005161012051610140516114db620003cf600039600081816106be0152610752015260006105650152600061054201526000610521015260006104e5015260008181610340015261077801526000818161036601526103ba01526114db6000f3fe6080604052600436106100dd5760003560e01c80636b68c03c1161007f57806391ad27b41161005957806391ad27b41461029f578063c1af5785146102ca578063e55ae4e8146102d4578063fd6673f514610311576100dd565b80636b68c03c1461020b5780636e04ff0d146102365780638638b0c614610274576100dd565b80634585e33b116100bb5780634585e33b14610161578063473f1ddc1461018a57806353a2c19a146101b55780635f1b0fd8146101e0576100dd565b806309bc33a7146100e25780631fe543e31461010d578063320229eb14610136575b600080fd5b3480156100ee57600080fd5b506100f761033c565b6040516101049190610c29565b60405180910390f35b34801561011957600080fd5b50610134600480360381019061012f9190610ddd565b610364565b005b34801561014257600080fd5b5061014b610424565b6040516101589190610c29565b60405180910390f35b34801561016d57600080fd5b5061018860048036038101906101839190610e94565b61042e565b005b34801561019657600080fd5b5061019f61061e565b6040516101ac9190610f22565b60405180910390f35b3480156101c157600080fd5b506101ca610648565b6040516101d79190610c29565b60405180910390f35b3480156101ec57600080fd5b506101f5610657565b6040516102029190610c29565b60405180910390f35b34801561021757600080fd5b50610220610664565b60405161022d9190610fb4565b60405180910390f35b34801561024257600080fd5b5061025d60048036038101906102589190611084565b61067b565b60405161026b929190611167565b60405180910390f35b34801561028057600080fd5b50610289610728565b60405161029691906111b8565b60405180910390f35b3480156102ab57600080fd5b506102b461074e565b6040516102c19190610c29565b60405180910390f35b6102d2610776565b005b3480156102e057600080fd5b506102fb60048036038101906102f691906111d3565b6108e5565b6040516103089190610f22565b60405180910390f35b34801561031d57600080fd5b5061032661092c565b6040516103339190610c29565b60405180910390f35b60007f0000000000000000000000000000000000000000000000000000000000000000905090565b7f000000000000000000000000000000000000000000000000000000000000000073ffffffffffffffffffffffffffffffffffffffff163373ffffffffffffffffffffffffffffffffffffffff161461041657337f00000000000000000000000000000000000000000000000000000000000000006040517f1cf993f400000000000000000000000000000000000000000000000000000000815260040161040d929190611200565b60405180910390fd5b6104208282610938565b5050565b6000600254905090565b60006104486040518060200160405280600081525061067b565b509050806104b75747600080549050600160149054906101000a900460ff16600181111561047957610478610f3d565b5b6040517f6e195f250000000000000000000000000000000000000000000000000000000081526004016104ae93929190611229565b60405180910390fd5b60018060146101000a81548160ff021916908360018111156104dc576104db610f3d565b5b021790555060007f000000000000000000000000000000000000000000000000000000000000000073ffffffffffffffffffffffffffffffffffffffff16635d3b1d307f00000000000000000000000000000000000000000000000000000000000000007f000000000000000000000000000000000000000000000000000000000000000060037f000000000000000000000000000000000000000000000000000000000000000060016040518663ffffffff1660e01b81526004016105a69594939291906112d8565b6020604051808303816000875af11580156105c5573d6000803e3d6000fd5b505050506040513d601f19601f820116820180604052508101906105e99190611340565b9050807febf56642252004c18a776f30d528e7a0ce8c5db14b6596fb6550f630c8a24c6c60405160405180910390a250505050565b6000600160009054906101000a900473ffffffffffffffffffffffffffffffffffffffff16905090565b6000600163ffffffff16905090565b6000600361ffff16905090565b6000600160149054906101000a900460ff16905090565b600060606000600160149054906101000a900460ff1660018111156106a3576106a2610f3d565b5b600060018111156106b7576106b6610f3d565b5b14905060007f0000000000000000000000000000000000000000000000000000000000000000600254426106eb919061139c565b1190506000806000805490501190506000804711905083801561070b5750825b80156107145750815b801561071d5750805b955050505050915091565b600160009054906101000a900473ffffffffffffffffffffffffffffffffffffffff1681565b60007f0000000000000000000000000000000000000000000000000000000000000000905090565b7f00000000000000000000000000000000000000000000000000000000000000003410156107d0576040517fec269fd100000000000000000000000000000000000000000000000000000000815260040160405180910390fd5b600060018111156107e4576107e3610f3d565b5b600160149054906101000a900460ff16600181111561080657610805610f3d565b5b1461083d576040517fe76be6fc00000000000000000000000000000000000000000000000000000000815260040160405180910390fd5b6000339080600181540180825580915050600190039060005260206000200160009091909190916101000a81548173ffffffffffffffffffffffffffffffffffffffff021916908373ffffffffffffffffffffffffffffffffffffffff1602179055503373ffffffffffffffffffffffffffffffffffffffff167f1d64fb5ba9f2548c5b98468d58f25b87b9e866afee0122e92d9fe722bf85076c60405160405180910390a2565b60008082815481106108fa576108f96113d0565b5b9060005260206000200160009054906101000a900473ffffffffffffffffffffffffffffffffffffffff169050919050565b60008080549050905090565b6000808054905082600081518110610953576109526113d0565b5b6020026020010151610965919061142e565b9050600080828154811061097c5761097b6113d0565b5b9060005260206000200160009054906101000a900473ffffffffffffffffffffffffffffffffffffffff16905080600160006101000a81548173ffffffffffffffffffffffffffffffffffffffff021916908373ffffffffffffffffffffffffffffffffffffffff1602179055506000600160146101000a81548160ff02191690836001811115610a1057610a0f610f3d565b5b021790555042600281905550600067ffffffffffffffff811115610a3757610a36610c9a565b5b604051908082528060200260200182016040528015610a655781602001602082028036833780820191505090505b5060009080519060200190610a7b929190610b69565b5060008173ffffffffffffffffffffffffffffffffffffffff1647604051610aa290611490565b60006040518083038185875af1925050503d8060008114610adf576040519150601f19603f3d011682016040523d82523d6000602084013e610ae4565b606091505b5050905080610b1f576040517f1c94012000000000000000000000000000000000000000000000000000000000815260040160405180910390fd5b8173ffffffffffffffffffffffffffffffffffffffff167f5b690ec4a06fe979403046eaeea5b3ce38524683c3001f662c8b5a829632f7df60405160405180910390a25050505050565b828054828255906000526020600020908101928215610be2579160200282015b82811115610be15782518260006101000a81548173ffffffffffffffffffffffffffffffffffffffff021916908373ffffffffffffffffffffffffffffffffffffffff16021790555091602001919060010190610b89565b5b509050610bef9190610bf3565b5090565b5b80821115610c0c576000816000905550600101610bf4565b5090565b6000819050919050565b610c2381610c10565b82525050565b6000602082019050610c3e6000830184610c1a565b92915050565b6000604051905090565b600080fd5b600080fd5b610c6181610c10565b8114610c6c57600080fd5b50565b600081359050610c7e81610c58565b92915050565b600080fd5b6000601f19601f8301169050919050565b7f4e487b7100000000000000000000000000000000000000000000000000000000600052604160045260246000fd5b610cd282610c89565b810181811067ffffffffffffffff82111715610cf157610cf0610c9a565b5b80604052505050565b6000610d04610c44565b9050610d108282610cc9565b919050565b600067ffffffffffffffff821115610d3057610d2f610c9a565b5b602082029050602081019050919050565b600080fd5b6000610d59610d5484610d15565b610cfa565b90508083825260208201905060208402830185811115610d7c57610d7b610d41565b5b835b81811015610da55780610d918882610c6f565b845260208401935050602081019050610d7e565b5050509392505050565b600082601f830112610dc457610dc3610c84565b5b8135610dd4848260208601610d46565b91505092915050565b60008060408385031215610df457610df3610c4e565b5b6000610e0285828601610c6f565b925050602083013567ffffffffffffffff811115610e2357610e22610c53565b5b610e2f85828601610daf565b9150509250929050565b600080fd5b60008083601f840112610e5457610e53610c84565b5b8235905067ffffffffffffffff811115610e7157610e70610e39565b5b602083019150836001820283011115610e8d57610e8c610d41565b5b9250929050565b60008060208385031215610eab57610eaa610c4e565b5b600083013567ffffffffffffffff811115610ec957610ec8610c53565b5b610ed585828601610e3e565b92509250509250929050565b600073ffffffffffffffffffffffffffffffffffffffff82169050919050565b6000610f0c82610ee1565b9050919050565b610f1c81610f01565b82525050565b6000602082019050610f376000830184610f13565b92915050565b7f4e487b7100000000000000000000000000000000000000000000000000000000600052602160045260246000fd5b60028110610f7d57610f7c610f3d565b5b50565b6000819050610f8e82610f6c565b919050565b6000610f9e82610f80565b9050919050565b610fae81610f93565b82525050565b6000602082019050610fc96000830184610fa5565b92915050565b600080fd5b600067ffffffffffffffff821115610fef57610fee610c9a565b5b610ff882610c89565b9050602081019050919050565b82818337600083830152505050565b600061102761102284610fd4565b610cfa565b90508281526020810184848401111561104357611042610fcf565b5b61104e848285611005565b509392505050565b600082601f83011261106b5761106a610c84565b5b813561107b848260208601611014565b91505092915050565b60006020828403121561109a57611099610c4e565b5b600082013567ffffffffffffffff8111156110b8576110b7610c53565b5b6110c484828501611056565b91505092915050565b60008115159050919050565b6110e2816110cd565b82525050565b600081519050919050565b600082825260208201905092915050565b60005b83811015611122578082015181840152602081019050611107565b60008484015250505050565b6000611139826110e8565b61114381856110f3565b9350611153818560208601611104565b61115c81610c89565b840191505092915050565b600060408201905061117c60008301856110d9565b818103602083015261118e818461112e565b90509392505050565b60006111a282610ee1565b9050919050565b6111b281611197565b82525050565b60006020820190506111cd60008301846111a9565b92915050565b6000602082840312156111e9576111e8610c4e565b5b60006111f784828501610c6f565b91505092915050565b60006040820190506112156000830185610f13565b6112226020830184610f13565b9392505050565b600060608201905061123e6000830186610c1a565b61124b6020830185610c1a565b6112586040830184610c1a565b949350505050565b6000819050919050565b61127381611260565b82525050565b600067ffffffffffffffff82169050919050565b61129681611279565b82525050565b600061ffff82169050919050565b6112b38161129c565b82525050565b600063ffffffff82169050919050565b6112d2816112b9565b82525050565b600060a0820190506112ed600083018861126a565b6112fa602083018761128d565b61130760408301866112aa565b61131460608301856112c9565b61132160808301846112c9565b9695505050505050565b60008151905061133a81610c58565b92915050565b60006020828403121561135657611355610c4e565b5b60006113648482850161132b565b91505092915050565b7f4e487b7100000000000000000000000000000000000000000000000000000000600052601160045260246000fd5b60006113a782610c10565b91506113b283610c10565b92508282039050818111156113ca576113c961136d565b5b92915050565b7f4e487b7100000000000000000000000000000000000000000000000000000000600052603260045260246000fd5b7f4e487b7100000000000000000000000000000000000000000000000000000000600052601260045260246000fd5b600061143982610c10565b915061144483610c10565b925082611454576114536113ff565b5b828206905092915050565b600081905092915050565b50565b600061147a60008361145f565b91506114858261146a565b600082019050919050565b600061149b8261146d565b915081905091905056fea2646970667358221220e1428892949e7996cad35ec495a966d7e68f1df7fff43511bc295d22d4e5912e64736f6c63430008110033",
  "devdoc": {
    "kind": "dev",
    "methods": {
      "checkUpkeep(bytes)": {
        "details": "This is the function that the chainlink keeper nodes call they look for the 'upkeepNeeded' to return true. 1. Our time interval should have passed 2. The lottery should have at least 1 player, and have some ETH 3. Our subscription is funded is LINK 4. The lottery should be in an open state 5."
      }
    },
    "version": 1
  },
  "userdoc": {
    "kind": "user",
    "methods": {
      "getEntranceFee()": {
        "notice": "View/Pure functions "
      }
    },
    "version": 1
  },
  "storageLayout": {
    "storage": [
      {
        "astId": 1161,
        "contract": "contracts/Lottery.sol:Lottery",
        "label": "s_players",
        "offset": 0,
        "slot": "0",
        "type": "t_array(t_address_payable)dyn_storage"
      },
      {
        "astId": 1178,
        "contract": "contracts/Lottery.sol:Lottery",
        "label": "s_recentWinner",
        "offset": 0,
        "slot": "1",
        "type": "t_address_payable"
      },
      {
        "astId": 1181,
        "contract": "contracts/Lottery.sol:Lottery",
        "label": "s_lotteryState",
        "offset": 20,
        "slot": "1",
        "type": "t_enum(LotteryState)1156"
      },
      {
        "astId": 1183,
        "contract": "contracts/Lottery.sol:Lottery",
        "label": "s_lastTimeStamp",
        "offset": 0,
        "slot": "2",
        "type": "t_uint256"
      }
    ],
    "types": {
      "t_address_payable": {
        "encoding": "inplace",
        "label": "address payable",
        "numberOfBytes": "20"
      },
      "t_array(t_address_payable)dyn_storage": {
        "base": "t_address_payable",
        "encoding": "dynamic_array",
        "label": "address payable[]",
        "numberOfBytes": "32"
      },
      "t_enum(LotteryState)1156": {
        "encoding": "inplace",
        "label": "enum Lottery.LotteryState",
        "numberOfBytes": "1"
      },
      "t_uint256": {
        "encoding": "inplace",
        "label": "uint256",
        "numberOfBytes": "32"
      }
    }
  }
}